:100000000C9436020C947D020C947D020C947D02BB
:100010000C947D020C947D020C947D020C947D0264
:100020000C947D020C947D020C94521F0C9424209D
:100030000C94E2170C947D020C947D020C947D02CA
:100040000C947D020C947D020C947D020C947D0234
:100050000C947D020C944A180C947D020C947D0241
:100060000C947D020C947D020C947D020C947D0214
:100070000C947D020C947D020C947D020C947D0204
:100080000C947D020C947D020C947D020C947D02F4
:100090000C947D020C947D020C947D020C947D02E4
:1000A0000C947D020C947D020C947D02470D470D4B
:1000B000790D790DC60DE40D3C0F3C0F260EBB0EDD
:1000C000CC0ECC0E2C0F3C0F3C0F350FD00FD00FA9
:1000D000E20FE20FD90FE20FE20FE20FD00FD00FC5
:1000E000DE0FE20FE20FDE0F9120B820B021B82022
:1000F000B02104212721B0217E218D2114001A0076
:100100000800150017001C0018000C001200130056
:1001100004001600070009000A000B000D000E0085
:100120000F002D431D001B000600190005001100E3
:100130001000360037003800E000E200E1002A42FB
:100140002C412C0028444C45E70029001E001F00CC
:100150002000210022002300240025002600270083
:100160002B002D002E0035002F0030003100330011
:100170003400010000000000000000002E002D00EF
:1001800000000100010001000100010001002A003F
:100190000000000058004C00010001003A003B0044
:1001A0003C003D003E003F00400041004200430053
:1001B0002B0044004500000000000000000000008B
:1001C000000000003900460000000000000053005D
:1001D0000000AA00A900A8000100010001002A00F7
:1001E0000000000001004C00010001001E021F027F
:1001F00020022102220249004B0052004E004C0016
:100200002B000000000035022F024A005000510070
:100210004F000000E10000000000000000004D0061
:1002200000000000000000000100010001002A00A1
:100230002A00000000004C00000000005F00600089
:100240006100560054000000F400F000F500F900D1
:100250005C005D005E00570055000000F200F100F8
:10026000F300FA0059005A005B0000000000000093
:10027000000001000100010067006200630001004E
:100280002A00000000004C00010001001E021F02B5
:100290002002210222022302240225022602270232
:1002A00000000000000035022F023002310233024C
:1002B00034022D02000000000000000000000000D9
:1002C0000000360237023802000000000000000083
:1002D0002A000000000000000000000004033000BD
:1002E0000000260350003400300020004F00720050
:1002F000740068006F0020004B0065007900620008
:100300006F0061007200640000000E035000610085
:10031000620069006C006500000004030904090222
:100320003B00020100A0FA090400000103010100E2
:100330000921110100012240000705810308000A7C
:10034000090401000103000000092111010001223C
:10035000C0000705820320000A12011001000000FE
:10036000086666696601000102030105010902A130
:100370000185020901A100050919012905150025BA
:10038000019505750181029501750381010501093A
:100390003009311581257F950275088106093815C8
:1003A00081257F950175088106050C0A38021581A3
:1003B000257F950175088106C0C005010980A1014E
:1003C00085031A81002A8300160100260300950187
:1003D00075108100C0050C0901A10185041A0100F6
:1003E0002A9C02160100269C02950175108100C00E
:1003F00005010906A1018505050719E029E7150092
:1004000025019508750181020507190029EF1500DE
:10041000250195F075018102050819012905950549
:1004200075019102950175039101C005010906A1AD
:1004300001050719E029E7150025019508750181D7
:10044000029501750881010507190029FF1500268D
:10045000FF00950675088100050819012905950515
:1004600075019102950175039101C00011241FBE11
:10047000CFEFDAE0DEBFCDBF04B603FE27C0809128
:10048000100290911102A0911202B09113028730D4
:10049000904BA740B04BD1F4109210021092110271
:1004A000109212021092130214BE84B7877F84BF89
:1004B0000FB6F894A89580916000886180936000E1
:1004C000109260000FBEE0E0F8E3099511E0A0E0B3
:1004D000B1E0ECEAF4E402C005900D92A232B1075B
:1004E000D9F722E0A2E2B1E001C01D92A031B2072B
:1004F000E1F70E947C1C0C9454220C9400009C0197
:100500003A9521153F4138F5DC01AA27B270AC01BC
:10051000442754709C012227387094FF0FC090FF2D
:1005200002C080E101C080E0AB2B09F08062452B66
:1005300009F08064232B69F080680BC0892F8170DB
:10054000AB2B09F08260452B09F08460232B09F066
:100550008860FB0109940895CF93DF93EC01805EDE
:100560009109089710F0209719F467E07DE002C028
:1005700066E97FE0CE010E947F028C2FDF91CF9150
:100580000C94F60BCF93DF93EC010E94C00CCE01CC
:10059000805E9109089710F0209719F46EE07DE0D5
:1005A00002C06DE97FE0CE01DF91CF910C947F0214
:1005B000CF93DF93EC010E94AC02CE01DF91CF918B
:1005C0000C94C20281E0089581E008950C94E40245
:1005D0001F93CF93DF9300D000D01F92CDB7DEB72B
:1005E00049835A836B832091480189819A81211123
:1005F00012C0662349F00E942015182F682F8981A8
:100600009A810E94C91403C00E94F414182F6981B2
:100610007A81812F04C00E94201569817A810F9010
:100620000F900F900F900F90DF91CF911F910C942E
:100630001205FC01408151816281738184810C9497
:10064000E8020E945516811102C00E94F5160E9410
:1006500022090C94C1070C94C307282F2F7041F076
:10066000822F90E02A3010F44D9608950697089551
:1006700087E290E0089508950C943B030C943C03AA
:1006800008950E94BE0F0E9440032FEF84E39CE078
:10069000215080409040E1F700C0000087E797E7D5
:1006A00090930108809300080C9470180F931F9387
:1006B000CF93DF938C010E941903EC01B8010E94D3
:1006C000E602882309F4A4C1B801CE010E9496096C
:1006D000882309F49DC1B801CE010E943F0A8823F6
:1006E00009F496C1C631FCE5DF0739F50E94A11572
:1006F000982FF80182812091000130910101882317
:1007000079F09A7A81E009F480E0809322019111D6
:1007100002C069E201C065E3C9010E9462170AC014
:1007200080912201811102C069E201C065E3C90123
:100730000E946D170E94F2156BC1C7318CE5D80776
:1007400008F03BC1C130ECE5DE0771F4F8018281AD
:10075000882309F45DC18091C701982F909590FB83
:1007600080F98093C70154C1C230FCE5DF0708F46B
:1007700013C1F8018281882309F411C10E94551622
:10078000811102C00E94F5160E9468169093020221
:1007900080930102C031FCE5DF0709F4BFC008F017
:1007A0003FC0C830ECE5DE0709F496C0F0F4C43071
:1007B0008CE5D80709F483C068F4C230FCE5DF0794
:1007C00009F473C0C330DC4509F0DDC0809101023B
:1007D000826072C0C630ECE5DE0709F46AC008F03A
:1007E00077C080910102886067C0CC308CE5D80763
:1007F00009F481C058F4CA30FCE5DF0709F470C081
:1008000008F075C080910102806856C0CE30ECE5DA
:10081000DE0709F474C008F07DC08091010289C030
:10082000CB3F8CE5D80709F44DC008F5C331FCE592
:10083000DF0709F47BC068F4C131ECE5DE0709F499
:1008400071C0C231DC4509F09EC0809101028F77F2
:1008500033C0C5318CE5D80709F472C008F486C0EE
:10086000CA3FDC4509F08FC0809102023EC0CF3FF5
:100870008CE5D80709F45FC058F4CD3FFCE5DF07ED
:1008800009F444C008F43FC08091020282602DC088
:10089000C130EDE5DE0709F473C008F45DC0C23075
:1008A000DD4509F070C080E06CC08091010281607C
:1008B00003C08091010280618093010264C0809135
:1008C000010211C0809102028260809302025BC02B
:1008D000809101028062F0CF809101028064ECCFB0
:1008E0008091010288608460E7CF8160EECF8091C3
:1008F00001028E7FE1CF809101028D7FDDCF80915B
:100900000102877FD9CF8091020218C08091020234
:100910008D7FDBCF809101028F7ECECF809101024F
:100920008F7DCACF809101028F7BC6CF809101025B
:10093000877F8B7FC1CF809102028D7F8E7FC5CF55
:100940008091010282FB222720F991E0922790FBFF
:1009500082F990FB83F9B0CF80910202982F909595
:1009600091708E7F892B90FB81F9AFCF809101022E
:1009700087FB222720F991E0922790FB87F99CCFF3
:1009800081E00E94F71680910102909102020E947C
:1009900079160E94BE0F3CC0C115DC4539F0C80174
:1009A000DF91CF911F910F910C94E202F8018281A7
:1009B000882371F10E9441032BC0CE3DECE5DE0798
:1009C00039F4F8018281882319F10E94F51620C0BC
:1009D000CF3DFCE5DF07A8F4CC3D8CE5D80731F42A
:1009E000F80182818823A1F080E008C0CD3DDC457C
:1009F000B1F6F8018281882359F082E00E94191D26
:100A000007C0CE018A5F9C45099708F4B2CEC7CFD4
:100A100080E0DF91CF911F910F91089580E090E0E9
:100A20000895089528E2829FC0011124FC012AE064
:100A3000729FE00DF11D1124E60FF11DEE0FFF1F57
:100A4000E450FF4F859194910895880F991FFC0100
:100A5000E452FD4F859194910895CF93DF930E94C6
:100A600012050E94E706EC018115904508F041C08F
:100A7000C11580E4D80708F028C1C83ED10510F59B
:100A8000C03ED10508F09FC1C83AD10578F4C53AF7
:100A9000D10508F0A2C0C130D10509F494C108F411
:100AA00045C1C430D10508F08EC140C1CF3BD1054E
:100AB00008F49EC0C03CD10508F438C1CE01805C6A
:100AC0009109F5C0C11590E2D90758F4C11521E08C
:100AD000D20708F078C1C03FD10508F427C1D0651E
:100AE00072C1C11580E3D80708F0E5C0CE019F7040
:100AF000DEC0C11595E5D90708F043C0C11524E54E
:100B0000D20708F0F9C0C11582E5D80708F5C1156C
:100B100091E5D90708F0DCC0CE0174E09695879581
:100B20007A95E1F783709C2F937021E030E002C04A
:100B3000220F331F9A95E2F73C68382BCF70C69589
:100B4000C69580E2C89FE0011124C22BD32B3BC184
:100B50009E01237033278C2F86958695C115D3452A
:100B600008F0BBC0C1E0D0E002C0CC0FDD1F2A9569
:100B7000E2F720E2829FC0011124C82BD92BDC6848
:100B800022C1C11529E5D207A0F4C11588E5D8070F
:100B900008F0B7C0C11596E5D90708F0C7C08C2F7B
:100BA0000E947B078F71C82FD0E0DC2FCC27D0624A
:100BB0000AC1C1152AE5D20708F4A8C0CE01905693
:100BC0008115904208F0B2C08D2F8F710E947B0773
:100BD000DD27D0628F71D82BF6C0C53AD10509F454
:100BE000A8C0C63AD10509F0A7C0C2E8D0E4EBC05E
:100BF000C83AD10509F4A3C0C93AD10509F4A2C085
:100C0000CA3AD10509F4A1C0CB3AD10509F4A0C074
:100C1000CC3AD10509F49FC0CB3BD10509F49EC065
:100C2000CC3BD10509F49DC0CD3AD10509F49CC057
:100C3000C03BD10509F49BC0CE3AD10509F49AC056
:100C4000CF3AD10509F499C0C13BD10509F498C048
:100C5000C23BD10509F497C0C33BD10509F496C046
:100C6000C43BD10509F495C0C53BD10509F494C036
:100C7000C63BD10509F493C0C73BD10509F492C026
:100C8000C83BD10509F491C0C93BD10509F490C016
:100C9000CD3BD10509F48FC0CE3BD10509F48EC000
:100CA000CA3BD10509F48DC0C0E0D4E48CC00E94D9
:100CB0002505EC0188C0CE019927D3FF03C0EC01C4
:100CC000D86C81C0EC01D06C7EC0DF70D06A7BC074
:100CD000DC2FCC27C16FD06A76C0C1E0D0E002C063
:100CE000CC0FDD1F2A95E2F720E2829FC00111247C
:100CF000C82BD92BDA6867C0DC2FCC27C46FD06A29
:100D000062C0DC2FCC27C06FD06A5DC08C2F8F7083
:100D10000E947B0794E0D695C7959A95E1F7CF702E
:100D2000D0E0DC2FCC27D069C82B4DC0C0E0D0E08C
:100D30004AC0C1E8D0E447C0C3E8D0E444C0C2EE32
:100D4000D4E441C0C9EED4E43EC0CAEED4E43BC012
:100D5000C5EBD4E438C0C6EBD4E435C0C3EBD4E46F
:100D600032C0C4EBD4E42FC0C7EBD4E42CC0CCEC2D
:100D7000D4E429C0CDECD4E426C0C3E8D5E423C034
:100D8000CAE8D5E420C0C2E9D5E41DC0C4E9D5E471
:100D90001AC0C1E2D6E417C0C3E2D6E414C0C4E26C
:100DA000D6E411C0C5E2D6E40EC0C6E2D6E40BC05C
:100DB000C7E2D6E408C0CFE6D4E405C0C0E7D4E477
:100DC00002C0CAE2D6E4CE01DF91CF910895823805
:100DD000910569F1B0F48133910509F46DC048F4CF
:100DE0008932910509F463C08A32910509F469C01A
:100DF00008958533910509F455C089339105B9F0FB
:100E00000895833E910569F138F4803E9105B1F073
:100E1000823E910509F10895863E9105A9F1873E2C
:100E20009105B9F1843E910509F064C023C0209179
:100E3000010220FD4FC021FD4DC0089580910102A7
:100E400080FD44C08091020280FF44C08091010275
:100E500084FD42C083EE4DC08091010282FF38C004
:100E6000F5CF8091010282FD33C08091020280FDA6
:100E700031C0ECCF8091020281FF32C0809101022B
:100E800084FD2AC087EE35C08091010283FF26C011
:100E9000F5CF8091010283FD21C08091020281FD86
:100EA0001FC0ECCF8091010285FD1CC01DC0809148
:100EB000010285FD19C016C08091010286FD16C091
:100EC00017C08091010286FD13C010C089E311C0D4
:100ED00082EE0FC080EE0DC080E00BC086EE09C030
:100EE00084EE07C089E205C085E303C08AE201C041
:100EF00081E390E008959091010292FF0DC0282FA8
:100F00002871283019F4877F846006C0282F247147
:100F1000243011F48B7F886093FF0DC0282F287137
:100F2000283119F4877E846106C0282F247124316A
:100F300011F48B7E88612091020220FF0DC0382FB2
:100F40003871383019F4877F816006C0382F3171CD
:100F5000313011F48E7F886021FF0DC0282F287159
:100F6000283119F4877E816106C0282F2171213133
:100F700011F48E7E886194FD877E089508950C9407
:100F8000BE070C94BF070C94BE07E82FF0E0EE0FED
:100F9000FF1FED5DFE4F8081918108950895CF93ED
:100FA000DF93ADE1B1E041E251E061E070E08D91AD
:100FB000E82FE295EF70F0E021A18F70EB0102C005
:100FC000CC0FDD1F8A95E2F7CE019C2F90959223DE
:100FD00091A392A1892B82A34A175B0741F7A3E152
:100FE000B1E041E050E08D91E82FE295EF70F0E044
:100FF00021A18F70BA0102C0660F771F8A95E2F7B0
:10100000CB01962F9095922391A392A1892B82A335
:1010100071E0AD31B70739F710922C0110922B0116
:10102000109224011092230110922E0110922D0192
:1010300010922601109225011092300110922F017A
:101040001092280110922701109232011092310162
:1010500010922A011092290184E00E94D208DF91A7
:10106000CF910C9421033F924F925F926F927F92A7
:101070008F929F92AF92BF92CF92DF92EF92FF92A8
:101080000F931F93CF93DF936DE171E0ABE2B1E07B
:1010900023E3622E21E0722E412C01E010E05D017D
:1010A0008D909C90119711961C921E92EB01899144
:1010B000BE01E82FE295EF70F0E021A18F70A8014A
:1010C00002C0440F551F8A95E2F7CA01242B21A3C1
:1010D00022A1342E3094232122A350EA5A95F1F70D
:1010E00093E1E92E91E0F92E40E050E0E7015990BC
:1010F0007E01252D22952F7030E0E90128A1CD90A9
:10110000DC90119730E0D52DDF7002C03595279522
:10111000DA95E2F720FD08C09801042E02C0220FE4
:10112000331F0A94E2F702C020E030E0C22AD32A3B
:101130001196DC92CE924F5F5F4F4A305105B1F667
:1011400091A1D32DD923D1A392A1892B82A3129649
:1011500081E0F501208131812815390509F480E00D
:10116000482A6A167B0609F09ACF242D44E063E2F0
:1011700071E08BE291E00E94D3080E942B03842D42
:10118000DF91CF911F910F91FF90EF90DF90CF9063
:10119000BF90AF909F908F907F906F905F904F9097
:1011A0003F9008950895FF920F931F93CF93DF937D
:1011B000F82E092F162FD72FC42F222349F081E0B4
:1011C000809335010E941418909334018093330169
:1011D000809135018823D9F08091330190913401B9
:1011E0000E942018069798F0EF2DF02FA12FBD2F09
:1011F00080E090E04C2F50E08417950734F4219163
:1012000031912D933D930196F7CF10923501DF91E7
:10121000CF911F910F91FF900895CF93DF9397FF88
:101220000DC0FB012281222349F0EC010E94380904
:10123000CE019F770E9479090E94620981E0DF91C7
:10124000CF9108958CE090E00E94122290E0A0E0FF
:10125000B0E08093F6019093F701A093F801B0936A
:10126000F90108956091F6018CE090E00C94202241
:101270000E94A1158093FA010E94B4158091F60195
:10128000813071F048F0823081F08430A1F486EE34
:101290000E94F40C88E10DC082EE0E94F60B0BC098
:1012A00088E193E00E94D80206C082EE0E94F60B0D
:1012B00087E50E94F40C8FE39CE90197F1F700C0E9
:1012C000000008958091F601813039F040F08230BD
:1012D00031F0843051F488E206C08CE204C082EE22
:1012E0000E94C00C02C00E94F40C8091FA010C9480
:1012F000B1150F931F93CF93DF938C01CCE0D0E017
:10130000C8010C2E02C0969587950A94E2F78F705B
:101310000E942D030E94F40C2497CC3F8FEFD80736
:1013200079F7DF91CF911F910F9108950F931F933C
:10133000CF93DF93EC018B01FB018281882319F1AC
:10134000C33EFCE5DF07C1F050F4C13EECE5DE072B
:1013500081F0C23EFCE5DF07B1F481E010C0C43E7D
:101360008CE5D80759F0C53EECE5DE0761F484E072
:1013700006C01092F60105C082E001C083E08093B0
:10138000F6010E943209B801CE01DF91CF911F9181
:101390000F910C940D090F931F93CF93DF93C62FDA
:1013A000D42F122FFC0182818823C9F06093380169
:1013B0000E941418909337018093360180E28C0FBD
:1013C000883008F057C0C77081E001C0880FCA9507
:1013D000EAF7DF91CF911F910F910C94070D809147
:1013E0003801681330C080913601909137010E9416
:1013F0002018883C910538F500E20D0FCD17B9F0A3
:1014000080E28C0F883040F4C77081E001C0880F03
:10141000CA95EAF70E940E0D083028F581E09D2F4D
:10142000977001C0880F9A95EAF70E94070D812FE7
:101430000E94F40C0830F0F4D77081E001C0880FEE
:10144000DA95EAF70AC080E28C0F883098F4C7700A
:1014500081E001C0880FCA95EAF7DF91CF911F9113
:101460000F910C940E0D812FDF91CF911F910F9151
:101470000C94F40CDF91CF911F910F9108959C0172
:10148000CB01233F4CE53407F9F078F4283DFCE527
:101490003F07B9F0293D4CE5340711F1273D3C45A4
:1014A00031F526E241EE61EE1EC0253FFCE53F0727
:1014B00099F070F0263F3C45D1F427E245EE66EE08
:1014C00012C027E245EE0EC026E241EE60EE0BC0F0
:1014D00027E245EE64EE07C026E241EE62EE03C06D
:1014E00028E241E065EE0E94CB0980E00895FC010E
:1014F0008281882319F010923801089581E00895BF
:1015000090933E0180933D010895E0913D01F0915B
:101510003E01309721F00190F081E02D099480E0A8
:101520000895E0913D01F0913E01309799F02091AE
:101530001201222359F02091010227FF07C0DC018C
:101540002C9111962C93119725E02C930280F38116
:10155000E02D09940895E0913D01F0913E0130970E
:1015600039F022E0DC012C930480F581E02D099410
:10157000089520913B0130913C012817390771F003
:1015800090933C0180933B01E0913D01F0913E013D
:10159000309721F00680F781E02D0994089520917D
:1015A000390130913A012817390771F090933A01C7
:1015B00080933901E0913D01F0913E01309721F097
:1015C0000084F185E02D0994089585B7806885BF72
:1015D00085B7806885BF089508950C94EC0A0C9433
:1015E000ED0A0C94EC0A0C94EC0A0E94E50A0E94A5
:1015F000F10A0C94EF0A81E008950E940B180E94F2
:10160000CF070E9481180C94F30A5F926F927F9229
:101610008F929F92AF92BF92CF92DF92EF92FF9202
:101620000F931F93CF93DF93CDB7DEB72A970FB6F3
:10163000F894DEBF0FBECDBF0E9433080E94FB0AA4
:10164000811111C08FEF89838A831B820E94141835
:101650008160782F9D838C8349815A816B818D8134
:101660000E94C20B56C090E4692E91E0792E00E0F2
:1016700010E088248394912C502E802F0E94C5075F
:101680006C01F301A190B1903F01A826B926A114E5
:10169000B10431F40F5F1F4F0430110569F7D2CF49
:1016A0008091C70181FD0E94CE0780E090E0740127
:1016B000082E02C0EE0CFF1C0A94E2F795012E21C1
:1016C0003F21232B09F18E835F82CE20DF2081E032
:1016D000CD2809F480E088870E9414188160782F53
:1016E0009A8789874E815F8168858A850E94C20BAF
:1016F000000F111FF801E05CFE4F80819181E82608
:10170000F926F182E08205C001968A30910579F6CA
:10171000C1CF0E94131A0E94850A90913F01891738
:10172000D9F00E94850A80933F012A960FB6F8945B
:10173000DEBF0FBECDBFDF91CF911F910F91FF9004
:10174000EF90DF90CF90BF90AF909F908F907F9061
:101750006F905F900C943E032A960FB6F894DEBF0C
:101760000FBECDBFDF91CF911F910F91FF90EF90F2
:10177000DF90CF90BF90AF909F908F907F906F90B1
:101780005F900895CF93DF93CDB7DEB72B970FB659
:10179000F894DEBF0FBECDBF4F83588769877A8725
:1017A0008B87DE01119686E0FD0111928A95E9F79B
:1017B00085E0FE01379601900D928A95E1F7498107
:1017C0005A816B817C818D819E810E948E122B9625
:1017D0000FB6F894DEBF0FBECDBFDF91CF91089555
:1017E000FC01808191810E9462150895882309F48B
:1017F000C6C09CEF980F913A40F4682F8091000189
:10180000909101010E9462170DC090E2980F9830EC
:1018100058F4877091E001C0990F8A95EAF7892FF3
:101820000E94A4150C94F2159BE5980F933070F468
:10183000853A29F0863A31F083E890E005C081E8E6
:1018400090E002C082E890E00C94B90A98E5980F05
:10185000973108F08EC0883A09F445C0893A09F4F6
:1018600045C08A3A09F445C08B3A09F445C08C3A20
:1018700009F445C08B3B09F445C08C3B09F445C0D5
:101880008D3A09F445C0803B09F445C08E3A09F40D
:1018900045C08F3A09F445C0813B09F445C0823BFD
:1018A00009F445C0833B09F445C0843B09F445C0B5
:1018B000853B09F445C0863B09F445C0873B09F4E4
:1018C00045C0883B09F445C0893B09F445C08D3BC0
:1018D00009F445C08E3B09F445C08A3B09F445C074
:1018E00080E090E044C082EE90E041C089EE90E05C
:1018F0003EC08AEE90E03BC085EB90E038C086EBBE
:1019000090E035C083EB90E032C084EB90E02FC0D4
:1019100087EB90E02CC08CEC90E029C08DEC90E03F
:1019200026C083E891E023C08AE891E020C082E9E4
:1019300091E01DC084E991E01AC081E292E017C0F5
:1019400083E292E014C084E292E011C085E292E06A
:101950000EC086E292E00BC087E292E008C08FE6FC
:1019600090E005C080E790E002C08AE292E00C942B
:10197000CF0A803F20F00E941B190C94081A08958A
:10198000882389F19CEF980F913A40F4682F809159
:101990000001909101010E946D170DC090E2980F17
:1019A000983058F4877091E001C0990F8A95EAF752
:1019B000892F0E94AA150C94F2159BE5980F93307D
:1019C00020F480E090E00C94B90A98E5980F9731E4
:1019D00020F480E090E00C94CF0A803F20F00E9439
:1019E00083190C94081A0895CF93C82F0E94F60B00
:1019F000C93349F42FEF87EE93E0215080409040A7
:101A0000E1F700C000008C2FCF910C94C00C88230C
:101A100021F00E94A4150C94F2150895882321F05A
:101A20000E94AA150C94F2150895CF92DF92EF92BE
:101A3000FF920F931F93CF93DF937C01062FC72F45
:101A4000FC01158112951F70D281D1110E94C4151D
:101A50000E949A15882379F0DD2369F080E2800FD7
:101A6000883048F082E00E943C160E949A1591E06E
:101A7000D82ED92601C0D12CCC2EC2948FE0C822FA
:101A80008C2D90E0FC01EA5AFF4F0C94F8218C2F2A
:101A9000807FCF70882311F0C295C07FDD2399F03D
:101AA000CC2309F4C4C180E2800F883010F001110A
:101AB00004C08C2F0E94A41503C08C2F0E94B71560
:101AC0000E94F215B4C1802F0E94C00CCC2309F4EF
:101AD000D3C180E2800F883010F0011104C08C2F38
:101AE0000E94AA1503C08C2F0E94BD150E94F215FA
:101AF000C3C18C2F807FCF70803211F0C295C07F20
:101B0000002319F00130C9F022C0DD2371F0112348
:101B100041F0113031F40E94D7158C2B0E94DF1553
:101B2000ABC10E94D7158C2B1DC0112319F01130A9
:101B300009F4A2C10E94E81525C0DD2321F016306A
:101B400008F09AC10EC0153008F096C11BC0DD2305
:101B500061F0112331F0F701858180FF68C18F703A
:101B600085838C2F0E94070D87C1112359F00933FB
:101B700009F06EC1FFEF27EE83E0F1502040804076
:101B8000E1F764C18C2F0E940E0D76C18C2F8695D3
:101B90008695837019F0813061F06EC1DD2321F0EC
:101BA000802F9C2F937002C080E090E00E94B90AC1
:101BB0006BC1DD2321F0802F9C2F937002C080E049
:101BC00090E00E94CF0A60C1DD23F9F0053F51F09B
:101BD000063F71F0043FA9F48091FB019091FC0154
:101BE00081600BC08091FB019091FC01826005C077
:101BF0008091FB019091FC0184609093FC018093A3
:101C0000FB01802F0E941B191EC0053F51F0063FAB
:101C100071F0043FA9F48091FB019091FC018E7F4B
:101C20000BC08091FB019091FC018D7F05C08091DC
:101C3000FB019091FC018B7F9093FC018093FB0151
:101C4000802F0E9483190E94081A1EC18C2F837056
:101C500009F045C0D11114C1402F429546954770F7
:101C6000440F440F602F6F70862F90E0A0E0B0E02B
:101C7000042E04C0880F991FAA1FBB1F0A94D2F715
:101C800004FF10C00FE010E020E030E004C0000FBF
:101C9000111F221F331F4A95D2F7009510952095EA
:101CA000309503C000E010E09801C695C695C3705A
:101CB000BC01CD01602B712B822B932BC23049F0DC
:101CC00058F4C13019F00E94DF13DAC00E94CD131E
:101CD000D7C00E94F113D4C00E94CB13D1C0DD2322
:101CE00019F08C2F817001C08695882309F4C8C033
:101CF000402F429546954770440F440F602F6F70F8
:101D0000862F90E0A0E0B0E0042E04C0880F991F59
:101D1000AA1FBB1F0A94D2F704FF10C00FE010E007
:101D200020E030E004C0000F111F221F331F4A952E
:101D3000D2F7009510952095309503C000E010E093
:101D40009801C695C695C370BC01CD01602B712B5F
:101D5000822B932BC23049F058F4C13019F00E9405
:101D6000A4148EC00E9492148BC00E94B61488C026
:101D70000E94051485C0CF70DD2339F08C2F0E949E
:101D80002B14802F0E94070D7BC0802F0E940E0D08
:101D90008C2F0E944C1474C0023F01F128F4003FC4
:101DA00041F0013FA1F03FC0033FF9F0043F39F19A
:101DB0003AC0DD2341F0153008F05EC08C2F8F71E2
:101DC0000E94711459C0163008F056C0F7CFDD23B9
:101DD00039F08C2F8F710E942B144EC0DD23C9F374
:101DE0008C2F8F710E944C1447C0DD2329F08C2F5B
:101DF0008F710E94161440C00E9411143DC0DD2353
:101E000049F0CF718C2F0E942B1463E08C2F0E941D
:101E1000271632C081E00E943C16123068F182E041
:101E20000E943C1629C0DD2331F0112391F2802F4E
:101E30000E94F60B21C0112399F2093349F49FEF58
:101E4000E7EEF3E09150E040F040E1F700C0000021
:101E5000802F0E94C00C10C04C2F4F70602FC70104
:101E60000E940E050E943C130FC04C2F4F70602F34
:101E7000C7010E94110508C088EF8C0D843020F442
:101E80000E94850A0E943E03DD20C9F00E9496153B
:101E900080FD15C0F70112820E9490150E942B143C
:101EA000C7010E94680F0E949015DF91CF911F918A
:101EB0000F91FF90EF90DF90CF900C944C14DF9136
:101EC000CF911F910F91FF90EF90DF90CF900895E9
:101ED0000F931F93CF93DF93EC01988189812B811E
:101EE0003C81232B31F08F3F31F481E09F3F19F487
:101EF00003C081E001C080E080FD13C0CE010E94DC
:101F00005603882371F0688179818A810E946D155A
:101F10008C010E94C8140E94B913B801CE010E941E
:101F2000150DDF91CF911F910F910895882321F016
:101F30000E94B7150C94F2150895882321F00E9491
:101F4000BD150C94F21508950E94C4150E94D41575
:101F50000E94F2150E94AE1A0E94081A80E090E0DA
:101F60000E94B90A80E090E00C94CF0A80910001B1
:101F7000909101010E9478170C94A40F0E94B4154F
:101F80000C94B60FE92FE295EF704E2F50E0FA0156
:101F90003297EE30F105B0F4EA59FF4F0C94F82176
:101FA000803F91F018F4883E68F40EC0843F51F4ED
:101FB0000BC0883E48F0813F29F406C093FB882778
:101FC00080F9089580E0089581E008950E946215E7
:101FD0000E94C20F0895CF93DF9300D000D01F92CC
:101FE000CDB7DEB70F900F900F900F900F90DF914D
:101FF000CF910895CF93DF9300D000D000D0CDB71C
:10200000DEB726960FB6F894DEBF0FBECDBFDF91C8
:10201000CF9108951F93CF93DF93C091490116E0AC
:1020200080914A01C81799F0D0E01C9FF0011D9FD4
:10203000F00D1124E55BFE4F408151816281738177
:10204000848195810E94FA0F2196C770E9CFDF91B4
:10205000CF911F91089540917B0150917C01609137
:102060007D0170917E0180917F01909180010C949F
:10207000FA0FCF938091800182958F7009F05FC035
:1020800080917D01882309F45AC080914901B09163
:102090004A0170917B01A0917C0140917E01509199
:1020A0007F0191E07F3F09F090E0692FC6E08B1738
:1020B00009F445C04115510521F0AF3F21F020E062
:1020C00003C021E001C0262F90E020FD35C0C89F4D
:1020D000F001C99FF00D1124E55BFE4F21812A1309
:1020E0002BC02081271328C02281211125C02381E4
:1020F00034812417350710F421503109241B350B86
:10210000283C3105C8F4209180012F702061209374
:10211000800126E0289FF001299FF00D1124E05B4B
:10212000FE4F80818F70806180838BE791E00E94F9
:10213000680FCF910C940A1001968770B8CFCF9199
:102140000895AF92BF92CF92DF92EF92FF920F93DA
:102150001F93CF93DF93CDB7DEB761970FB6F89497
:10216000DEBF0FBECDBF8C0185E0F801DE011D96FC
:1021700001900D928A95E1F7D8014C9111965C91EE
:1021800011971296EC9030917B0160917C018091C7
:102190007E0190917F01009731F06F3F31F421E093
:1021A0003F3F19F403C021E001C020E0B22FB1701D
:1021B000BB2E20FD60C1F801C380D480A0907D01BA
:1021C000AA2009F4EEC020918001C816D90628F093
:1021D000D601A81BB90BCD0104C0809590958C0D3C
:1021E0009D1DFF24F394883C910580F0F12C207F05
:1021F00009F09CC07C2DD98AC88A6E2D89890E94DD
:10220000EB0F8BE791E00E94680F2DC1822F807F3A
:1022100009F054C0561314C0431312C0FE2CE11031
:102220000FC02F702061209380010E942B108BE73C
:1022300091E00E94680F80918001F80185835CC164
:10224000CD2831F05F3F31F481E04F3F19F403C0F6
:1022500081E001C080E080FD03C081E08E2502C0E6
:1022600080E090E0F82FF170FF2E80FF1CC080917D
:10227000490120914A0136E0821709F41AC190E021
:10228000389FF001399FF00D1124E55BFE4F61810D
:10229000561306C06081461303C06281E61203C074
:1022A00001968770E9CFFE2CEE2009F425C18091BC
:1022B0008001816080938001F12C1EC1561309C0FA
:1022C000431307C0E11005C080918001F8018583A8
:1022D000A4C04D875E878D859E850E94E60F88236A
:1022E00079F1EE2069F120918001822F82958F7023
:1022F00090E0029774F080917B0190917C01988727
:102300008F831986DB86CA862C87CE0107960E94AA
:10231000680F86E0F801ABE7B1E001900D928A9575
:10232000E1F70E9439100E942B100DC0561771F072
:102330004D875E878D859E850E94E60F81111AC0AC
:10234000C8010E94680FFF24F394D6C04313F0CF56
:10235000E110EECF80918001F8018583C8010E94D1
:10236000680F86E0EBE7F1E0DF011D928A95E9F75F
:10237000FA2CC2C0EE2021F320918001822F829599
:102380008F7090E002972CF280917B0190917C01FC
:102390009A8389831B82DD82CC822E83CE010196B3
:1023A000B6CFC816D90628F0F601E81BF90BCF0105
:1023B00004C0809590958C0D9D1D883C910548F03A
:1023C000F12C7C2DD98AC88A6E2D89890E94EB0F49
:1023D0004AC0FE2CEE2009F4B3CF561333C043138A
:1023E00031C02091800120FD24C0822F82958F7002
:1023F000482F50E041155105E1F0D80115962C9376
:1024000015974F30510549F08F5F982F9295907F27
:10241000822F8F70892B15968C93C8010E94680FAC
:1024200086E0F801ABE7B1E001900D928A95E1F703
:102430003DC086E0F801ABE7B1E001900D928A95CE
:10244000E1F75AC04D875E878D859E850E94E60F15
:1024500081115FCF80918001816080938001C801EC
:102460000E94680F49C0EBE7F1E086E0DF011D92B2
:102470008A95E9F71BC0EE2009F462CF4D875E878D
:102480008D859E850E94E60FF82E882309F458CF8B
:1024900086E0F801ABE7B1E001900D928A95E1F793
:1024A0008BE791E00E94F00B0E9439100E942B10E4
:1024B00023C04D875E878D859E850E946215292FDA
:1024C00022952F70223028F49F7039F0811105C0B9
:1024D0000BC0243028F49F7049F4805E883020F0CF
:1024E000C8010E94680FBF2CFB2C06C0D8011596AE
:1024F0009C91907F91F7F8CF8F2D61960FB6F8944D
:10250000DEBF0FBECDBFDF91CF911F910F91FF9026
:10251000EF90DF90CF90BF90AF9008951F93CF932F
:10252000DF93CDB7DEB72C970FB6F894DEBF0FBEA2
:10253000CDBF4F83588769877A878B879C87CE0169
:1025400007960E94A1108823D1F09F8188852A8553
:102550003B85232B31F08F3F31F481E09F3F19F40D
:1025600003C081E001C080E080FD47C04F815885F5
:1025700069857A858B859C850E94FA0F3EC086E02E
:10258000FE013796DE01119601900D928A95E1F7D2
:10259000FF81E8856A857B856115710531F0EF3F24
:1025A00031F481E0FF3F19F403C081E001C080E015
:1025B00080FD23C020914A0130E0C9010196877057
:1025C00099274091490150E084179507F1F1F9836B
:1025D000EA837D836C8396E0929FD001939FB00D38
:1025E0001124A55BBE4FFE01319601900D929A9584
:1025F000E1F780934A010E940A1016E08091490198
:1026000090914A01891771F1189FC0011124855BCF
:102610009E4F0E94A110882329F1E09149011E9F3D
:10262000F0011124E55BFE4F40815181628173818D
:10263000848195810E94FA0F8091490190E0019672
:102640008770992780934901D9CF0E94BE0F1092BD
:102650004A0110924901EBE7F1E086E0DF011D92AB
:102660008A95E9F72C960FB6F894DEBF0FBECDBF62
:10267000DF91CF911F910895EF92FF920F931F93D7
:10268000CF93DF938C01892B09F46CC0F12CEE24DD
:10269000E394E8012196F8018491843740F4843072
:1026A00008F051C0813081F0823019F15BC085376C
:1026B00009F444C0A8F19CE7980F903708F052C085
:1026C0008F770E94C00C41C00E5F1F4FFE018491A6
:1026D00090E2980F983050F48770FE2D01C0FF0FE4
:1026E0008A95EAF78F2F0E94C71514C00E94F60B37
:1026F0002DC00E5F1F4FFE01849190E2980F98301D
:1027000060F48770FE2D01C0FF0F8A95EAF78F2FC6
:102710000E94CD150E94F21519C00E94C00C16C06F
:102720000E5F1F4FFE01C491CC2381F08FE99FE023
:102730000197F1F700C00000C150F6CF0E5F1F4FA8
:10274000FE01F49003C00E94F60B8E018F2D8823AA
:1027500009F49FCFEFE9FFE03197F1F700C00000E7
:102760008150F5CFDF91CF911F910F91FF90EF90A6
:102770000895089508950C94BA130C94BB130E9405
:10278000BD1360939E0170939F018093A00190936D
:10279000A1010C94A40F0C94BF130F931F930091ED
:1027A0009E0110919F012091A0013091A101602B09
:1027B000712B822B932B1F910F910C94BF130F93AE
:1027C0001F9300919E0110919F012091A0013091D3
:1027D000A10160237123822393231F910F910C94F5
:1027E000BF130F931F9300919E0110919F012091A1
:1027F000A0013091A10160277127822793271F91A3
:102800000F910C94BF130C94BA130E94031460939D
:102810009A0170939B0180939C0190939D010C946D
:10282000A40F60E070E0CB010C9405140F931F938C
:1028300041E050E060E070E08A019B0104C0000FBD
:10284000111F221F331F8A95D2F7C901B8011F91AA
:102850000F910C9405140F931F9341E050E060E03A
:1028600070E004C0440F551F661F771F8A95D2F78A
:1028700080919A0190919B01A0919C01B0919D0142
:102880008A019B01082B192B2A2B3B2BC901B8016C
:102890001F910F910C9405140F931F9341E050E08A
:1028A00060E070E004C0440F551F661F771F8A95D3
:1028B000D2F7409550956095709580919A019091CE
:1028C0009B01A0919C01B0919D018A019B0108236D
:1028D00019232A233B23C901B8011F910F910C949E
:1028E00005140F931F9341E050E060E070E004C0D6
:1028F000440F551F661F771F8A95D2F780919A0162
:1029000090919B01A0919C01B0919D018A019B0136
:10291000082719272A273B27C901B8011F910F91C2
:102920000C9405140F931F9300919A0110919B0131
:1029300020919C0130919D01602B712B822B932B58
:102940001F910F910C9405140F931F9300919A01FE
:1029500010919B0120919C0130919D016023712376
:10296000822393231F910F910C9405140F931F93AF
:1029700000919A0110919B0120919C0130919D0141
:1029800060277127822793271F910F910C940514BC
:1029900008952AE0929F800D1124E82FE695E69590
:1029A000E695877051E001C0550F8A95EAF785E0FA
:1029B000E89FF0011124EF57FE4F20E030E070E077
:1029C0004081CB01022E02C0969587950A94E2F7CA
:1029D0008170819584278523842781932F5F3F4FC2
:1029E0002530310569F708952AE0929F800D112462
:1029F000682F669566956695982F977085E0689F15
:102A0000B001112440E050E080E0FB01E40FF51F2D
:102A1000EF57FE4F208130E0092E02C036952795F2
:102A20000A94E2F721703327042E01C0220F0A9482
:102A3000EAF7822B4F5F5F4F4530510531F708951C
:102A4000BF92CF92DF92EF92FF920F931F93CF939B
:102A5000DF938C01C0909A01D0909B01E0909C0183
:102A6000F0909D0180919E0190919F01A091A00105
:102A7000B091A101C82AD92AEA2AFB2ACFE1D0E0E5
:102A8000D701C6010C2E04C0B695A79597958795DA
:102A90000A94D2F780FD04C0219790F7B12C07C0AB
:102AA000BC2EB8018C2F0E942D050197A9F38B2D08
:102AB000DF91CF911F910F91FF90EF90DF90CF901A
:102AC000BF900895CF93DF93EC010E942015BE01C3
:102AD0000E942D05DF91CF9108951F93CF93DF932F
:102AE000EB0190914801992321F0CB010E946215DE
:102AF00013C0882349F0CB010E942015182F682F9E
:102B0000CE010E94C91404C0CB010E94F414182FF6
:102B1000BE01812F0E942D05DF91CF911F91089555
:102B20008091A20185958595859508958091A20152
:102B3000877008959091A201977081E009F480E078
:102B400008958091C60108959091C601892B8093C4
:102B5000C601089580959091C60189238093C6018E
:102B600008958093C60108951092C601089590912A
:102B7000C501892B8093C501089580959091C50169
:102B800089238093C50108951092C50108959091FD
:102B9000C401892B8093C401089580959091C4014C
:102BA00089238093C40108951092C40108958091EF
:102BB000A301089508950C94DA150C94DB159091F7
:102BC000A301981721F08093A3010C94DD150895BB
:102BD0008091A301882329F01092A30180E00C9436
:102BE000DD150895E0910001F09101018091C60189
:102BF0008083E0910001F091010190818091C501F5
:102C0000892B8083E0910001F091010190818091F6
:102C1000C401892B80838091A301882381F0E091F6
:102C20000001F09101019081892B80838091000146
:102C3000909101010E94FC1681110E94E81580917B
:102C40000001909101010C94910A0C94DA1598E01E
:102C5000899F90011124262B2093A2010E942B14FE
:102C60008091A2018595859585950C9425161092E5
:102C7000A20180E00C9425162091A2018095822368
:102C80008093A201982F977079F430E0482F082E96
:102C9000000C550B2417350739F0859585958595DA
:102CA0000E944C140C943716089580E090E00E9426
:102CB0001A2221E08C3E9E4F09F020E0822F0895D9
:102CC00082E090E00C94122283E090E00C941222B7
:102CD000CF9384E090E00E941222C82F81E290E01E
:102CE0000E9412222C2F30E0A901582BCA01CF914B
:102CF0000895CF93C92F682F84E090E00E9420228E
:102D00006C2F81E290E0CF910C942022AB01BC01AA
:102D10008FE090E00C943222AB01BC0183E190E0A3
:102D20000C94322260E070E0CB010C948C1660E0D1
:102D300070E0CB010E9486160C9492166CEE7EEF2A
:102D400080E090E00E943E2260E082E090E00E94FD
:102D5000202260E083E090E00E94202210929E01F9
:102D600010929F011092A0011092A10160E084E0F6
:102D700090E00E94202260E081E290E00E94202208
:102D800060E085E090E00E94202260E086E090E034
:102D90000E9420226FEF87E090E00E94202240E016
:102DA00050E0BA0188E090E00E94322260E08DE0BD
:102DB00090E00E94202240E050E0BA0188E190E0DB
:102DC0000E94322260E087E190E00E94202240E0F1
:102DD00050E0BA018CE190E00E94322260E080E293
:102DE00090E00E9420220C9497160C949E16682F57
:102DF0008EE090E00C942022FC013296809112012A
:102E0000882331F08091010287FF02C09EE101C05A
:102E100096E080E0915028F021912223D9F38F5F32
:102E2000F9CF08959C01FC0132969FEF80E041911B
:102E3000461789F09F3F19F4411101C0982F8F5F09
:102E40008630A9F79F3F39F0F901E90FF11D97FD91
:102E5000FA956283089508959C012A5F3F4FFC0113
:102E60004281461301C01282019682179307B9F777
:102E70000895262F2695269526952E3168F4FC0177
:102E8000E20FF11D677021E030E001C0220F6A956A
:102E9000EAF78281282B22830895262F26952695EE
:102EA00026952E3170F4FC01E20FF11D677021E0D0
:102EB00030E001C0220F6A95EAF72095828128232D
:102EC0002283089520911201222329F020910102EA
:102ED00027FD0C9439170C9412172091120122230C
:102EE00029F02091010227FD0C944D170C942C170A
:102EF00020911201FC013296222331F080910102CF
:102F000087FF02C08EE101C086E0DF011D928A9535
:102F1000E9F7089508950C948A170C948A17CF93B3
:102F20000E948D170E9433080E948B17C0E08C2FDF
:102F30000E94C507892B29F4CF5FC430C1F780E018
:102F400001C081E0CF9108950C948A170C94A417C6
:102F50000E94A61780910702843049F11092C8019F
:102F600020E488E190E00FB6F894A8958093600083
:102F70000FBE2093600080E00E943E030E94A617CF
:102F800083B7817F846083BF83B7816083BF789478
:102F9000889583B78E7F83BF0FB6F894A8958091EC
:102FA0006000886180936000109260000FBE0895F9
:102FB0000C948A170E94BE0F0E94850A0E943E034D
:102FC0000C94D8171F920F920FB60F9211248F9363
:102FD0009F93AF93BF938091C801811113C08091DB
:102FE000FD019091FE01A091FF01B0910002419678
:102FF000A11DB11D8093FD019093FE01A093FF01DF
:10300000B0930002BF91AF919F918F910F900FBE2F
:103010000F901F90189582E084BD93E095BD9AEFC4
:1030200097BD80936E0008952FB7F8948091FD01AD
:103030009091FE01A091FF01B09100022FBF089571
:10304000CF92DF92EF92FF920F931F932FB7F894D6
:103050004091FD015091FE016091FF0170910002CD
:103060002FBF6A017B01EE24FF248C0120E030E0B9
:10307000C016D106E206F30610F4415051099A0138
:10308000281B390BC9011F910F91FF90EF90DF9022
:10309000CF90089578941F920F920FB60F9211243B
:1030A0008F939F93AF93BF938091FD019091FE0109
:1030B000A091FF01B09100020196A11DB11D809366
:1030C000FD019093FE01A093FF01B0930002BF9118
:1030D000AF919F918F910F900FBE0F901F901895F9
:1030E00087E797E790930108809300089AE088E1CA
:1030F0000FB6F894A895809360000FBE909360007F
:10310000FFCF0E945516811102C00E94F5160E9441
:1031100060168093C7010E94681690930202809304
:1031200001020E946416682F70E080E090E00C9429
:10313000CB138091CC0180FF0BC06091050185E02D
:10314000689FB001112475956795759567952BC09B
:1031500081FF09C06091050185E0689FB0011124DD
:103160007595679520C082FF07C06091050185E0D5
:10317000689FB001112417C09091CB019923D1F021
:1031800060910401961788F72091050185E0289F3A
:1031900090011124929FA001939F500D112470E083
:1031A000CA010E94E4216038710540F4611571057F
:1031B00019F406C065E070E0862F08958FE7089542
:1031C00081E008958091CC0180FF08C060910301E7
:1031D00070E0759567957595679521C081FF06C06C
:1031E0006091030170E07595679519C082FF04C076
:1031F0006091030170E010C09091CB01992399F088
:10320000609102019617A0F780910301899FC00188
:10321000112470E00E94E4216038710540F46115CA
:10322000710519F406C061E070E0862F08958FE7FC
:10323000089581E00895803F21F40E9499188195B6
:1032400004C0813F29F40E9499188093D001089509
:10325000823F21F40E949918819504C0833F29F48C
:103260000E9499188093CF010895893F19F40E9414
:10327000E21805C08A3F31F40E94E21881958093DC
:10328000D10108958B3F21F40E94E218819504C07A
:103290008C3F29F40E94E2188093D2010895843F64
:1032A00021F48091CE01816017C0853F21F4809187
:1032B000CE01826011C0863F21F48091CE018460EE
:1032C0000BC0873F21F48091CE01886005C0883F04
:1032D00031F48091CE0180618093CE0108958D3FBD
:1032E00021F48091CC0181600BC08E3F21F480914C
:1032F000CC01826005C08F3F29F48091CC018460AD
:103300008093CC010895803F39F48091D00187FFEC
:103310006CC01092D00169C0813F29F48091D00126
:103320001816BCF362C09091CF01823F29F497FF39
:103330005CC01092CF0159C0833F19F41916CCF329
:1033400054C0893F41F48091D10118160CF04DC052
:103350001092D1014AC08A3F29F48091D10187FFA0
:1033600044C0F6CF8B3F39F48091D20187FF3DC036
:103370001092D2013AC08C3F29F48091D2011816E4
:10338000BCF333C0843F21F48091CE018E7F17C0FF
:10339000853F21F48091CE018D7F11C0863F21F4BD
:1033A0008091CE018B7F0BC0873F21F48091CE01AD
:1033B000877F05C0883F31F48091CE018F7E809356
:1033C000CE0113C08D3F21F48091CC018E7F0BC0C4
:1033D0008E3F21F48091CC018D7F05C08F3F29F471
:1033E0008091CC018B7F8093CC018091CF018111A2
:1033F0000EC08091D00181110AC08091D10181114C
:1034000006C08091D201811102C01092CB010895B3
:103410008DEC91E00E94AB0A0E9414189093CA01AF
:103420008093C90108951F93CF93DF938091C901C1
:103430009091CA010E942018AC019091CB01992370
:1034400021F02091060130E006C0209107018AE0BA
:10345000289F900111244217530708F47BC08091E4
:10346000CF01C091D001D091D1011091D201811131
:1034700007C0C1116BC0D11169C0111167C06AC00A
:103480009F3F19F09F5F9093CB01181624F40E9480
:1034900099188093CF018091CF0187FF05C00E94CA
:1034A000991881958093CF011C1624F40E949918D5
:1034B0008093D0018091D00187FF05C00E949918A8
:1034C00081958093D0013091CF013323E1F0209199
:1034D000D0012223C1F045EB3403C001112499230C
:1034E00019F09093CF0103C081E08093CF0135EBB9
:1034F0002303C0011124992319F09093D00103C034
:1035000081E08093D0011D1624F40E94E21880937C
:10351000D1018091D10187FF05C00E94E2188195F9
:103520008093D101111624F40E94E2188093D201F5
:103530008091D20187FF05C00E94E2188195809397
:10354000D201DF91CF911F910C94081A9F3F09F08F
:1035500099CFAACFDF91CF911F910895EDECF1E0C3
:1035600086E0DF011D928A95E9F71092CB01109257
:10357000CC0108958091F30108950F931F93CF9389
:10358000DF9300D01F92CDB7DEB78C010E94291DBA
:10359000823011F0843021F584E089831B830A8313
:1035A00082E08093E9008FEF9091E800815095FDD3
:1035B00006C095ED9A95F1F700008111F5CF809145
:1035C000E80085FF0DC040E050E063E070E0CE0110
:1035D00001960E94461D8091E8008E778093E80056
:1035E0000F900F900F90DF91CF911F910F91089541
:1035F000CF93DF9300D01F92CDB7DEB720910702A3
:10360000243031F523E02983805891099B838A83F4
:1036100082E08093E9008FEF9091E800815095FD62
:1036200006C095ED9A95F1F700008111F5CF8091D4
:10363000E80085FF0DC040E050E063E070E0CE019F
:1036400001960E94461D8091E8008E778093E800E5
:103650000F900F900F90DF91CF910895CF93DF934C
:10366000EC010E94291D823011F08430F9F482E0CF
:103670008093E9008FEF9091E800815095FD06C09E
:1036800095ED9A95F1F700008111F5CF8091E80052
:1036900085FF0CC040E050E066E070E0CE010E9483
:1036A000461D8091E8008E778093E800DF91CF91EE
:1036B0000895CF93DF93EC010E94291D823011F011
:1036C0008430D9F580911201882339F0809101026C
:1036D00087FF03C060E282E002C068E081E080937F
:1036E000E9008FEF9091E800815095FD06C095EDBF
:1036F0009A95F1F700008111F5CF8091E80085FFE0
:103700001CC080911201811105C040E050E068E0CA
:1037100070E003C070E040E050E0CE010E94461D22
:103720008091E8008E778093E80080E2FE01A3EDAF
:10373000B1E001900D928A95E1F7DF91CF91089564
:1037400080910602811109C00E94D71E0E94341F79
:103750008091E20084608093E20008951092060256
:103760000895089508950C94DA1742E061EC81E021
:103770000E94501E42E261EC82E00C94501E809147
:103780000902833009F460C030F4813071F0823076
:1037900009F499C008958A3009F485C08B3009F482
:1037A0006BC0893009F0A7C020C080910802813A1F
:1037B00009F0A1C08091E800877F8093E8008091A4
:1037C0000C0290910D02892B21F460E283ED91E0CF
:1037D00003C060E080E090E070E00E94911D809165
:1037E000E8008B778093E800089580910802813289
:1037F00009F081C080910C0290910D02029708F0AF
:103800007AC08091E800877F8093E8008091E8008B
:1038100082FD05C0809107028111F8CF6CC0209114
:10382000F3008091F20090E0922B029729F48091AE
:10383000F1008B7F813021F48091F1008093F301BE
:103840008091E8008B7753C080910802813A09F09B
:1038500052C080910C0290910D02892B09F04BC04F
:103860008091E800877F8093E8008091E80080FFE6
:10387000FCCF8091120136C0809108028132D9F5C7
:1038800080910C0290910D02892BA9F58091E8009E
:10389000877F8093E8000E94851E80910A028093B2
:1038A00012010C94BE0F80910802813221F58091A3
:1038B000E800877F8093E8000E94851E80910B02BC
:1038C0008093F401089580910802813AA1F48091D7
:1038D000E800877F8093E8008091E80080FFFCCFBC
:1038E0008091F4018093F1008091E8008E778093BD
:1038F000E8000C94851E089584B7877F84BF0FB6B7
:10390000F894A8958091600088618093600010927F
:1039100060000FBE80E880936100109261000E94F9
:10392000F50A0E94D71E0E94341F8091E200846035
:103930008093E20078940E94C9210E94FD0A88E0E9
:1039400091E00E94800A80910702853069F40E940C
:10395000A817809105028823B1F30E948F1788234E
:1039600091F30E94301DEFCF0E94050BECCF0C9419
:10397000B91C292F332723303105C9F060F42130D9
:10398000310581F02230310509F04AC08BE390E027
:103990002EE133E049C02132310511F122323105E7
:1039A00079F13EC082E190E029E533E03DC09927FE
:1039B0008130910561F040F08230910559F0039714
:1039C00079F5ECEDF2E008C0EAE1F3E005C0EAE0E9
:1039D000F3E002C0E2EEF2E0849190E09F0124C0A7
:1039E0006115710541F061307105D1F489E090E015
:1039F00029E433E019C089E090E020E333E014C00B
:103A00006115710541F06130710551F480EC90E071
:103A10002BE633E009C080E490E02BE234E004C000
:103A200080E090E020E030E0FA01318320830895C7
:103A30000895CF93C82F0E94181DC093F501CF9110
:103A4000089580910702843011F081E0089582E0AA
:103A500008958091F501811102C00C94211D0895F3
:103A600080E189BD82E189BD09B400FEFDCF80916E
:103A7000D8008F7D8093D8008091E0008260809391
:103A8000E0008091E00081FDFCCF0895CF92DF92AD
:103A9000EF92FF920F931F93CF93DF93EC018B0173
:103AA0007A010E94A41E811133C0E114F10439F09F
:103AB000F70180819181081B190BC80FD91FC12CF8
:103AC000D12C0115110519F18091E80085FD16C072
:103AD0008091E8008E778093E800E114F10449F0CA
:103AE000F70180819181C80ED91ED182C08285E004
:103AF0000FC00E94A41E882321F30AC089918093DD
:103B0000F10001501109FFEFCF1ADF0ADACF80E090
:103B1000DF91CF911F910F91FF90EF90DF90CF90A9
:103B2000089520910E0230910F022617370748F0B2
:103B30006115710539F42091E8002E772093E80093
:103B400001C0B901FC0120E06115710579F1809196
:103B500007028823F1F18530F1F18091E80083FDBF
:103B60003CC08091E80082FD2EC08091E80080FF7B
:103B7000EBCF2091F3008091F20090E0922B611541
:103B8000710551F08830910538F421912093F100AE
:103B9000615071090196F3CF21E0089709F020E008
:103BA0008091E8008E778093E800CECF2111CFCFAF
:103BB0000AC080910702882361F0853061F080910E
:103BC000E80083FD0AC08091E80082FFF2CF80E028
:103BD000089582E0089583E0089581E0089520919A
:103BE0000E0230910F022617370748F06115710554
:103BF00039F42091E8002E772093E80001C0B90144
:103C0000FC0120E06115710591F180910702882384
:103C100009F440C0853009F43FC08091E80083FD7D
:103C20003DC08091E80082FD2FC08091E80080FFB8
:103C3000E9CF2091F3008091F20090E0922B611582
:103C4000710559F08830910540F424912093F100DA
:103C50003196615071090196F2CF21E0089709F081
:103C600020E08091E8008E778093E800CBCF21118F
:103C7000CCCF0AC080910702882361F0853061F0C3
:103C80008091E80083FD0AC08091E80082FFF2CFB6
:103C900080E0089582E0089583E0089581E008952A
:103CA000982F973068F59093E900981739F0709144
:103CB000EC002091ED005091F00003C0242F762FEE
:103CC00050E021FD02C09F5FECCF3091EB003E7FC2
:103CD0003093EB003091ED003D7F3093ED0030915B
:103CE000EB0031603093EB007093EC002093ED001B
:103CF0005093F0002091EE0027FDE5CF80E008957D
:103D00008F708093E90081E008958091080287FF19
:103D100011C08091E80082FD05C0809107028111E9
:103D2000F8CF11C08091E8008B770BC0809107021B
:103D3000882349F08091E80080FFF8CF8091E80067
:103D40008E778093E80008952091E4003091E5009B
:103D500095E64091EC00842F817040FF23C0809154
:103D6000E80080FD1DC080910702882399F085300E
:103D700099F08091EB0085FD11C04091E4005091D5
:103D8000E5002417350729F3915011F09A01E1CF8E
:103D900084E0089582E0089583E0089581E0089525
:103DA00080E008954091E80042FFDDCF08950E9431
:103DB000451F0E944D1FE0EEF0E08081816080830E
:103DC000E8EDF0E080818F77808319BCA7EDB0E04B
:103DD0008C918E7F8C9380818F7E808310920602DF
:103DE00008950F931F93CF93DF930E94451F0E9466
:103DF0004D1FC8EDD0E088818F77888388818068E7
:103E0000888388818F7D888319BC10920702109265
:103E10000302109205021092040200EE10E0F80175
:103E200080818B7F808388818160888342E060E02D
:103E300080E00E94501EE1EEF0E080818E7F808362
:103E4000E2EEF0E080818160808380818860808301
:103E5000F80180818E7F8083888180618883DF91F3
:103E6000CF911F910F910895E8EDF0E080818F7E52
:103E70008083E7EDF0E080818160808384E082BF11
:103E800081E0809306020C94F11EE8EDF0E0808161
:103E90008E7F80831092E20008951092DA001092D3
:103EA000E10008951F920F920FB60F9211242F93E5
:103EB0003F934F935F936F937F938F939F93AF93B2
:103EC000BF93EF93FF938091E10082FF0BC080913D
:103ED000E20082FF07C08091E1008B7F8093E100C8
:103EE0000E94C8218091DA0080FF1FC08091D80015
:103EF00080FF1BC08091DA008E7F8093DA00809172
:103F0000D90080FF0DC080E189BD82E189BD09B47F
:103F100000FEFDCF81E0809307020E94A01B05C038
:103F200019BC109207020E94AE1B8091E10080FF35
:103F300019C08091E20080FF15C08091E2008E7F61
:103F40008093E2008091E20080618093E2008091A2
:103F5000D80080628093D80019BC85E08093070266
:103F60000E94B21B8091E10084FF30C08091E2008A
:103F700084FF2CC080E189BD82E189BD09B400FEC7
:103F8000FDCF8091D8008F7D8093D8008091E10093
:103F90008F7E8093E1008091E2008F7E8093E2002B
:103FA0008091E20081608093E20080910302882387
:103FB00011F084E007C08091E30087FD02C081E03A
:103FC00001C083E0809307020E94B31B8091E1004F
:103FD00083FF29C08091E20083FF25C08091E1002A
:103FE000877F8093E10082E08093070210920302B2
:103FF0008091E1008E7F8093E1008091E2008E7FCE
:104000008093E2008091E20080618093E20042E0D0
:1040100060E080E00E94501E8091F00088608093F4
:10402000F0000E94B11BFF91EF91BF91AF919F9162
:104030008F917F916F915F914F913F912F910F9051
:104040000FBE0F901F9018951F920F920FB60F92F0
:1040500011242F933F934F935F936F937F938F938D
:104060009F93AF93BF93CF93DF93EF93FF93C09151
:10407000E900CF708091EC00D82FD17080FDD0E89E
:104080001092E9008091F000877F8093F00078948F
:104090000E9468201092E9008091F000886080936F
:1040A000F000CD2BCF70C093E900FF91EF91DF912D
:1040B000CF91BF91AF919F918F917F916F915F91C0
:1040C0004F913F912F910F900FBE0F901F90189519
:1040D0001F93CF93DF93CDB7DEB7AA970FB6F894AF
:1040E000DEBF0FBECDBFE8E0F2E08091F10081932A
:1040F00022E0E031F207C9F70E94BF1B8091E8007F
:1041000083FF2EC18091080290910902492F50E04F
:104110004A30510508F024C1FA01EC58FF4F0C94C5
:10412000F821803821F0823809F01AC108C0809146
:10413000040290910502992389F082600FC080915A
:104140000C028F70873008F00BC18093E9008091DA
:10415000EB0085FB882780F91092E9009091E80038
:10416000977F9093E8008093F1001092F100D1C006
:10417000282F2D7F09F0F4C0882319F0823061F0D8
:10418000EFC080910A02813009F0EAC0933009F053
:1041900080E0809305022EC080910A0281112AC01E
:1041A00080910C028F702FEF280F263008F0D8C0B6
:1041B0008093E9002091EB0020FF1CC0933021F494
:1041C0008091EB00806214C09091EB00906190931D
:1041D000EB0021E030E0A90102C0440F551F8A9591
:1041E000E2F74093EA001092EA008091EB008860C9
:1041F0008093EB001092E9008091E800877F809324
:10420000E8000E94851EACC08111AAC010910A026C
:104210001F778091E3008078812B8093E300809169
:10422000E800877F8093E8000E94851E8091E80067
:1042300080FFFCCF8091E30080688093E300111140
:1042400002C082E001C083E08093070289C08058E9
:10425000823008F085C080910A0290910B028C3D5B
:1042600053E0950779F583E08A838AE289834FB723
:10427000F894DE01139620E03EE051E2E32FF0E0F7
:1042800050935700E49120FF03C0E295EF703F5F29
:10429000EF708E2F90E0EA3010F0C79601C0C09604
:1042A0008D939D932F5F243149F74FBF8091E80094
:1042B000877F8093E8006AE270E0CE0101960E9459
:1042C000911D16C060910C0270910D02AE014F5FFE
:1042D0005F4F0E94B71CBC01892B09F441C090912B
:1042E000E800977F9093E80089819A810E94EF1DF2
:1042F0008091E8008B778093E80032C0803881F5A8
:104300008091E800877F8093E8008091030280938A
:10431000F1008091E8008E7772CF811121C08091E9
:104320000A0290910B0299270297D4F48091E80039
:10433000877F8093E80080910A02809303020E94A5
:10434000851E80910302811106C08091E30087FDE4
:1043500002C081E001C084E0809307020E94B51B87
:104360008091E80083FF0AC08091E800877F8093F6
:10437000E8008091EB0080628093EB00AA960FB674
:10438000F894DEBF0FBECDBFDF91CF911F9108958E
:104390000895CF93809107028823A1F0C091E9008E
:1043A000CF709091EC00892F817090FD80E8C82B30
:1043B0001092E9008091E80083FD0E946820CF7090
:1043C000C093E900CF91089597FB072E16F400944F
:1043D00007D077FD09D00E94FE2107FC05D03EF4EE
:1043E000909581959F4F0895709561957F4F0895A1
:1043F000EE0FFF1F0590F491E02D0994AA1BBB1B43
:1044000051E107C0AA1FBB1FA617B70710F0A61BD4
:10441000B70B881F991F5A95A9F780959095BC01F5
:10442000CD010895F999FECF92BD81BDF89A9927E3
:1044300080B50895A8E1B0E042E050E00C94462237
:10444000262FF999FECF92BD81BDF89A019700B44D
:10445000021639F01FBA20BD0FB6F894FA9AF99AED
:104460000FBE08950396272F0E9421220E9420222A
:10447000252F0E942122242F0C9421220196272FE0
:104480000E9421220C942022DC01CB01FC01F9992D
:10449000FECF06C0F2BDE1BDF89A319600B40D9290
:0C44A00041505040B8F70895F894FFCF49
:1044AC00A4012808140A321EBA1A591B2E1BF81A1A
:1044BC00BD1A01946697C634323331F7F69190F4F5
:0244CC00F500F9
:00000001FF
